:020000040800F2
:103800000050002099910008318A0008338A00088E
:10381000358A0008378A0008398A0008000000004D
:103820000000000000000000000000003B8A0008CB
:103830003D8A0008000000003F8A0008418A000815
:10384000E1910008E1910008E1910008E191000890
:10385000E1910008E1910008E1910008E191000880
:10386000E1910008E1910008E1910008458A000813
:10387000E1910008E1910008E1910008E191000860
:10388000E1910008E1910008518A0008E1910008E7
:10389000E1910008E1910008E1910008E191000840
:1038A000E1910008E1910008E1910008E191000830
:1038B000E19100085D8A0008E1910008E1910008AB
:1038C000E1910008E1910008E1910008E191000810
:1038D000E1910008698A0008E1910008758A0008F2
:1038E000E1910008E1910008E1910008000000006A
:1038F00000000000000000000000000000000000C8
:0C39000000000000000000005FF808F16B
:1039100010B5054C237833B9044B13B10448AFF309
:1039200000800123237010BD7800002000000000FB
:103930001CC6000808B5034B1BB103490348AFF38D
:10394000008008BD000000007C0000201CC60008AC
:1039500081F0004102E000BF83F0004330B54FEA40
:1039600041044FEA430594EA050F08BF90EA020FAD
:103970001FBF54EA000C55EA020C7FEA645C7FEA40
:10398000655C00F0E2804FEA5454D4EB5555B8BF63
:103990006D420CDD2C4480EA020281EA030382EAD4
:1039A000000083EA010180EA020281EA0303362D66
:1039B00088BF30BD11F0004F4FEA01314FF4801C39
:1039C0004CEA113102D0404261EB410113F0004F4B
:1039D0004FEA03334CEA133302D0524263EB430302
:1039E00094EA050F00F0A780A4F10104D5F1200EA0
:1039F0000DDB02FA0EFC22FA05F2801841F10001FB
:103A000003FA0EF2801843FA05F359410EE0A5F1CE
:103A100020050EF1200E012A03FA0EFC28BF4CF0FF
:103A2000020C43FA05F3C01851EBE37101F00045B5
:103A300007D54FF0000EDCF1000C7EEB00006EEBC2
:103A40000101B1F5801F1BD3B1F5001F0CD349084C
:103A50005FEA30004FEA3C0C04F101044FEA4452A3
:103A600012F5800F80F09A80BCF1004F08BF5FEA2A
:103A7000500C50F1000041EB045141EA050130BD0A
:103A80005FEA4C0C404141EB0101013C28BFB1F51C
:103A9000801FE9D291F0000F04BF01460020B1FA67
:103AA00081F308BF2033A3F10B03B3F120020CDA3A
:103AB0000C3208DD02F1140CC2F10C0201FA0CF018
:103AC00021FA02F10CE002F11402D8BFC2F1200C7D
:103AD00001FA02F120FA0CFCDCBF41EA0C01904033
:103AE000E41AA2BF01EB0451294330BD6FEA04047C
:103AF0001F3C1CDA0C340EDC04F11404C4F1200267
:103B000020FA04F001FA02F340EA030021FA04F378
:103B100045EA030130BDC4F10C04C4F1200220FACF
:103B200002F001FA04F340EA0300294630BD21FA0D
:103B300004F0294630BD94F0000F83F4801306BFD3
:103B400081F480110134013D4EE77FEA645C18BFC7
:103B50007FEA655C29D094EA050F08BF90EA020F5E
:103B600005D054EA000C04BF1946104630BD91EA56
:103B7000030F1EBF0021002030BD5FEA545C05D159
:103B80004000494128BF41F0004130BD14F5800498
:103B90003CBF01F5801130BD01F0004545F0FE410C
:103BA00041F470014FF0000030BD7FEA645C1ABF41
:103BB000194610467FEA655C1CBF0B46024650EA78
:103BC000013406BF52EA033591EA030F41F40021A4
:103BD00030BD00BF90F0000F04BF0021704730B52A
:103BE0004FF4806404F132044FF000054FF00001FF
:103BF00050E700BF90F0000F04BF0021704730B5C0
:103C00004FF4806404F1320410F0004548BF404294
:103C10004FF000013EE700BF42004FEAE2014FEAE9
:103C200031014FEA02701FBF12F07F4393F07F4FC4
:103C300081F06051704732F07F4208BF704793F0C7
:103C40007F4F04BF41F40021704730B54FF46074DA
:103C500001F0004521F000411CE700BF50EA0102DD
:103C600008BF704730B54FF000050AE050EA010286
:103C700008BF704730B511F0004502D5404261EBF6
:103C800041014FF4806404F132045FEA915C3FF437
:103C9000D8AE4FF003025FEADC0C18BF03325FEAD4
:103CA000DC0C18BF033202EBDC02C2F1200300FA85
:103CB00003FC20FA02F001FA03FE40EA0E0021FAAA
:103CC00002F11444BDE600BF70B54FF0FF0C4CF498
:103CD000E06C1CEA11541DBF1CEA135594EA0C0F4A
:103CE00095EA0C0F00F0DEF82C4481EA030621EA85
:103CF0004C5123EA4C5350EA013518BF52EA0335C0
:103D000041F4801143F4801338D0A0FB02CE4FF071
:103D10000005E1FB02E506F00042E0FB03E54FF0A1
:103D20000006E1FB03569CF0000F18BF4EF0010E99
:103D3000A4F1FF04B6F5007F64F5407404D25FEA95
:103D40004E0E6D4146EB060642EAC62141EA555148
:103D50004FEAC52040EA5E504FEACE2EB4F1FD0C8A
:103D600088BFBCF5E06F1ED8BEF1004F08BF5FEA08
:103D7000500E50F1000041EB045170BD06F00046BA
:103D800046EA010140EA020081EA0301B4EB5C0467
:103D9000C2BFD4EB0C0541EA045170BD41F480115F
:103DA0004FF0000E013C00F3AB8014F1360FDEBF84
:103DB000002001F0004170BDC4F10004203C35DA60
:103DC0000C341BDC04F11404C4F1200500FA05F3E3
:103DD00020FA04F001FA05F240EA020001F0004284
:103DE00021F0004110EBD37021FA04F642EB0601FA
:103DF0005EEA430E08BF20EAD37070BDC4F10C0424
:103E0000C4F1200500FA04F320FA05F001FA04F2E7
:103E100040EA020001F0004110EBD37041F10001D3
:103E20005EEA430E08BF20EAD37070BDC4F12005DE
:103E300000FA05F24EEA020E20FA04F301FA05F246
:103E400043EA020321FA04F001F0004121FA04F2EE
:103E500020EA020000EBD3705EEA430E08BF20EABE
:103E6000D37070BD94F0000F0FD101F000464000F8
:103E700041EB010111F4801F08BF013CF7D041EA7A
:103E8000060195F0000F18BF704703F0004652007E
:103E900043EB030313F4801F08BF013DF7D043EA4F
:103EA0000603704794EA0C0F0CEA135518BF95EA05
:103EB0000C0F0CD050EA410618BF52EA4306D1D18C
:103EC00081EA030101F000414FF0000070BD50EAAB
:103ED000410606BF1046194652EA430619D094EA35
:103EE0000C0F02D150EA013613D195EA0C0F05D11F
:103EF00052EA03361CBF104619460AD181EA030173
:103F000001F0004141F0FE4141F470014FF000002A
:103F100070BD41F0FE4141F4780170BD70B54FF0C5
:103F2000FF0C4CF4E06C1CEA11541DBF1CEA135545
:103F300094EA0C0F95EA0C0F00F0A7F8A4EB050427
:103F400081EA030E52EA03354FEA013100F088801E
:103F50004FEA03334FF0805545EA131343EA1263E7
:103F60004FEA022245EA111545EA10654FEA00269C
:103F70000EF000419D4208BF964244F1FD0404F555
:103F8000407402D25B084FEA3202B61A65EB0305B1
:103F90005B084FEA32024FF480104FF4002CB6EB6E
:103FA000020E75EB030E22BFB61A754640EA0C00EE
:103FB0005B084FEA3202B6EB020E75EB030E22BF2E
:103FC000B61A754640EA5C005B084FEA3202B6EB6F
:103FD000020E75EB030E22BFB61A754640EA9C002E
:103FE0005B084FEA3202B6EB020E75EB030E22BFFE
:103FF000B61A754640EADC0055EA060E18D04FEABC
:10400000051545EA16754FEA06164FEAC30343EA5B
:1040100052734FEAC2025FEA1C1CC0D111F4801F28
:104020000BD141EA00014FF000004FF0004CB6E721
:1040300011F4801F04BF01430020B4F1FD0C88BFC0
:10404000BCF5E06F3FF6AFAEB5EB030C04BFB6EBCB
:10405000020C5FEA500C50F1000041EB045170BDBE
:104060000EF0004E4EEA113114EB5C04C2BFD4EBEB
:104070000C0541EA045170BD41F480114FF0000E6F
:10408000013C90E645EA060E8DE60CEA135594EAEB
:104090000C0F08BF95EA0C0F3FF43BAF94EA0C0FEE
:1040A0000AD150EA01347FF434AF95EA0C0F7FF463
:1040B00025AF104619462CE795EA0C0F06D152EAB7
:1040C00003353FF4FDAE1046194622E750EA41069B
:1040D00018BF52EA43067FF4C5AE50EA41047FF4AC
:1040E0000DAF52EA43057FF4EBAE12E74FF0FF3C11
:1040F00006E000BF4FF0010C02E000BF4FF0010CE2
:104100004DF804CD4FEA410C7FEA6C5C4FEA430C5A
:1041100018BF7FEA6C5C1BD001B050EA410C0CBFA9
:1041200052EA430C91EA030F02BF90EA020F00200B
:10413000704710F1000F91EA030F58BF994208BF72
:1041400090422CBFD8176FEAE37040F0010070472F
:104150004FEA410C7FEA6C5C02D150EA013C07D186
:104160004FEA430C7FEA6C5CD6D152EA033CD3D0D1
:104170005DF8040B704700BF8446104662468C46CB
:104180001946634600E000BF01B5FFF7B7FF0028FE
:1041900048BF10F1000F01BD4DF808EDFFF7F4FF27
:1041A0000CBF012000205DF808FB00BF4DF808EDB2
:1041B000FFF7EAFF34BF012000205DF808FB00BFD5
:1041C0004DF808EDFFF7E0FF94BF012000205DF8F7
:1041D00008FB00BF4DF808EDFFF7CEFF94BF0120AC
:1041E00000205DF808FB00BF4DF808EDFFF7C4FFA5
:1041F00034BF012000205DF808FB00BF4FEA410CEE
:104200007FEA6C5C02D150EA013C0AD14FEA430CD0
:104210007FEA6C5C02D152EA033C02D14FF000000D
:1042200070474FF0010070474FEA410212F500124B
:1042300015D211D56FF47873B3EB625212D94FEAED
:10424000C12343F0004343EA505311F0004F23FAD7
:1042500002F018BF404270474FF00000704750EA2C
:10426000013005D111F0004008BF6FF000407047E9
:104270004FF00000704700BF4A0011D212F5001243
:1042800011D20DD56FF47873B3EB62520ED44FEAAE
:10429000C12343F0004343EA505323FA02F070472E
:1042A0004FF00000704750EA013002D14FF0FF306C
:1042B00070474FF0000070474FEA4102B2F1E0430F
:1042C00024BFB3F5001CDCF1FE5C0DD901F0004CFD
:1042D0004FEAC0024CEA5070B2F1004F40EB83004D
:1042E00008BF20F00100704711F0804F21D113F179
:1042F0003872BCBF01F00040704741F480114FEAB2
:104300005252C2F11802C2F1200C10FA0CF320FA3A
:1043100002F018BF40F001004FEAC1234FEAD32357
:1043200003FA0CFC40EA0C0023FA02F34FEA4303C1
:10433000CCE77FEA625307D150EA01331EBF4FF04A
:10434000FE4040F44000704701F0004040F0FE4065
:1043500040F40000704700BF80F0004002E000BF62
:1043600081F0004142001FBF5FEA410392EA030F60
:104370007FEA226C7FEA236C6AD04FEA1262D2EBAA
:104380001363C1BFD218414048404140B8BF5B42AF
:10439000192B88BF704710F0004F40F4000020F048
:1043A0007F4018BF404211F0004F41F4000121F05E
:1043B0007F4118BF494292EA030F3FD0A2F10102A8
:1043C00041FA03FC10EB0C00C3F1200301FA03F1E6
:1043D00000F0004302D5494260EB4000B0F5000F09
:1043E00013D3B0F1807F06D340084FEA310102F1C8
:1043F0000102FE2A51D2B1F1004F40EBC25008BF7A
:1044000020F0010040EA03007047490040EB000043
:10441000013A28BFB0F5000FEDD2B0FA80FCACF144
:10442000080CB2EB0C0200FA0CF0AABF00EBC25071
:1044300052421843BCBFD0401843704792F0000F5F
:1044400081F4000106BF80F400000132013BB5E7B2
:104450004FEA41037FEA226C18BF7FEA236C21D028
:1044600092EA030F04D092F0000F08BF084670478D
:1044700090EA010F1CBF0020704712F07F4F04D15B
:10448000400028BF40F00040704712F100723CBF6E
:1044900000F50000704700F0004343F0FE4040F498
:1044A000000070477FEA226216BF08467FEA236356
:1044B0000146420206BF5FEA412390EA010F40F441
:1044C000800070474FF0000304E000BF10F000438D
:1044D00048BF40425FEA000C08BF704743F0964374
:1044E00001464FF000001CE050EA010208BF70478F
:1044F0004FF000030AE000BF50EA010208BF704716
:1045000011F0004302D5404261EB41015FEA010C2A
:1045100002BF84460146002043F0B64308BFA3F122
:104520008053A3F50003BCFA8CF2083AA3EBC25304
:1045300010DB01FA02FC634400FA02FCC2F1200223
:10454000BCF1004F20FA02F243EB020008BF20F05A
:104550000100704702F1200201FA02FCC2F12002C0
:1045600050EA4C0021FA02F243EB020008BF20EAB5
:10457000DC7070474FF0FF0C1CEAD0521EBF1CEAE3
:10458000D15392EA0C0F93EA0C0F6FD01A4480EAD1
:10459000010C400218BF5FEA41211ED04FF00063BA
:1045A00043EA501043EA5111A0FB01310CF00040E6
:1045B000B1F5000F3EBF490041EAD3715B0040EA0C
:1045C000010062F17F02FD2A1DD8B3F1004F40EBDC
:1045D000C25008BF20F00100704790F0000F0CF0AF
:1045E000004C08BF49024CEA502040EA51207F3A73
:1045F000C2BFD2F1FF0340EAC250704740F400004E
:104600004FF00003013A5DDC12F1190FDCBF00F03E
:1046100000407047C2F10002410021FA02F1C2F1EC
:10462000200200FA02FC5FEA310040F1000053EA88
:104630004C0308BF20EADC70704792F0000F00F0D6
:10464000004C02BF400010F4000F013AF9D040EADC
:104650000C0093F0000F01F0004C02BF490011F470
:10466000000F013BF9D041EA0C018FE70CEAD1536E
:1046700092EA0C0F18BF93EA0C0F0AD030F0004CEE
:1046800018BF31F0004CD8D180EA010000F00040A2
:10469000704790F0000F17BF90F0004F084691F060
:1046A000000F91F0004F14D092EA0C0F01D142029A
:1046B0000FD193EA0C0F03D14B0218BF084608D163
:1046C00080EA010000F0004040F0FE4040F40000AD
:1046D000704740F0FE4040F4400070474FF0FF0C40
:1046E0001CEAD0521EBF1CEAD15392EA0C0F93EA87
:1046F0000C0F69D0A2EB030280EA010C49024FEAD9
:10470000402037D04FF0805343EA111143EA101391
:104710000CF000408B4238BF5B0042F17D024FF449
:10472000000C8B4224BF5B1A40EA0C00B3EB510F24
:1047300024BFA3EB510340EA5C00B3EB910F24BF0D
:10474000A3EB910340EA9C00B3EBD10F24BFA3EB92
:10475000D10340EADC001B0118BF5FEA1C1CE0D15A
:10476000FD2A3FF650AF8B4240EBC25008BF20F00D
:10477000010070470CF0004C4CEA50207F32C2BF61
:10478000D2F1FF0340EAC250704740F400004FF0FE
:104790000003013A37E792F0000F00F0004C02BF2F
:1047A000400010F4000F013AF9D040EA0C0093F0F9
:1047B000000F01F0004C02BF490011F4000F013B53
:1047C000F9D041EA0C0195E70CEAD15392EA0C0FBB
:1047D00008D142027FF47DAF93EA0C0F7FF470AFF3
:1047E000084676E793EA0C0F04D14B023FF44CAF36
:1047F00008466EE730F0004C18BF31F0004CCAD1CB
:1048000030F000427FF45CAF31F000437FF43CAF06
:104810005FE700BF4FF0FF3C06E000BF4FF0010C28
:1048200002E000BF4FF0010C4DF804CD4FEA40020A
:104830004FEA41037FEA226C18BF7FEA236C11D054
:1048400001B052EA530C18BF90EA010F58BFB2EB07
:10485000030088BFC81738BF6FEAE17018BF40F087
:10486000010070477FEA226C02D15FEA402C05D13B
:104870007FEA236CE4D15FEA412CE1D05DF8040BC0
:10488000704700BF844608466146FFE70FB5FFF753
:10489000C9FF002848BF10F1000F0FBD4DF808ED0B
:1048A000FFF7F4FF0CBF012000205DF808FB00BFFC
:1048B0004DF808EDFFF7EAFF34BF012000205DF856
:1048C00008FB00BF4DF808EDFFF7E0FF94BF0120A3
:1048D00000205DF808FB00BF4DF808EDFFF7D2FFA0
:1048E00094BF012000205DF808FB00BF4DF808EDE3
:1048F000FFF7C8FF34BF012000205DF808FB00BFB0
:104900004FEA4002B2F1FE4F0FD34FF09E03B3EBDC
:1049100012620DD94FEA002343F0004310F0004F1C
:1049200023FA02F018BF404270474FF00000704772
:1049300012F1610F01D1420205D110F0004008BF11
:104940006FF0004070474FF00000704742000ED2F9
:10495000B2F1FE4F0BD34FF09E03B3EB126209D4BA
:104960004FEA002343F0004323FA02F070474FF070
:104970000000704712F1610F01D1420202D14FF0E5
:10498000FF3070474FF00000704700BF53B94AB97D
:10499000002908BF00281CBF4FF0FF314FF0FF3047
:1049A00000F08CB9ADF1080C6DE904CE00F006F80A
:1049B000DDF804E0DDE9022304B070472DE9F0479B
:1049C000089D8E4604468846002B4AD18A421746E7
:1049D00062D9B2FA82F64EB1C6F1200301FA06F8A6
:1049E00020FA03F3B74043EA0808B4404FEA174EF1
:1049F000B8FBFEF11FFA87FC0EFB118801FB0CF2DD
:104A0000230C43EA08439A4209D9FB1801F1FF300D
:104A100080F0EB809A4240F2E88002393B449A1AD7
:104A2000B2FBFEF00EFB102200FB0CFCA3B243EA2B
:104A300002439C4509D9FB1800F1FF3280F0D78072
:104A40009C4540F2D4803B44023840EA01400021BA
:104A5000A3EB0C031DB10022F340C5E90032BDE811
:104A6000F0878B4205D90DB1C5E900010021084648
:104A7000F5E7B3FA83F1002946D1734502D38242A8
:104A800000F20881841A6EEB030201209046002D8B
:104A9000E5D0C5E90048E2E7002A00F09180B2FACB
:104AA00082F6002E40F0A5808A1A0121030C4FEAFD
:104AB000174E80B2BCB2B2FBFEFC0EFB1C2243EAD6
:104AC000024304FB0CF29A4207D9FB180CF1FF38A1
:104AD00002D29A4200F2E380C4469B1AB3FBFEF274
:104AE0000EFB123302FB04F440EA03439C4207D955
:104AF000FB1802F1FF3002D29C4200F2CD80024648
:104B00001B1B42EA0C40A5E7C1F120068B4022FAAC
:104B100006F71F432EFA06FA4FEA1749BAFBF9F8CF
:104B20000EFA01FE20FA06F309FB18AA1FFA87FC09
:104B300043EA0E0300FA01FE08FB0CF01C0C44EAE9
:104B40000A44A04202FA01F20AD93C1908F1FF3ADC
:104B500080F09E80A04240F29B80A8F102083C4475
:104B6000241A98B2B4FBF9F309FB134403FB0CFCC1
:104B700040EA0444A44509D93C1903F1FF3080F010
:104B80008580A44540F28280023B3C4443EA0840D1
:104B9000A4EB0C04A0FB028C64454346E14664D3BD
:104BA00061D05DB1BEEB030264EB090404FA06F6C2
:104BB00022FA01F31E43CC40C5E9006400214EE710
:104BC000B1FBF2FC010C41EA0E4180B240EA014225
:104BD0003B46B1FBF7F138463C46B846BE46202678
:104BE000A2EB080241EA0C4165E7014617E71046CF
:104BF0002BE7C6F120012EFA01FCB7400EFA06FEA3
:104C000020FA01F141EA0E014FEA174EBCFBFEF813
:104C1000BCB20EFB18CC08FB04F90A0C42EA0C42A9
:104C2000B04091454FEA104380B23ED9BA1808F11E
:104C3000FF3C01D291451FD8A2EB0902B2FBFEF95D
:104C400009FB04F80EFB192A8AB242EA0A424245DD
:104C500029D2BA1809F1FF31C2D24245C0D2A9F116
:104C600002013A44BCE7C6459BD2B8EB02036CEBA9
:104C7000070C0138E14694E7A7EB09094A44B2FB67
:104C8000FEF9A8F1020C09FB04F8DBE703467DE717
:104C9000D04665E70846FAE63B44023A30E7ACF115
:104CA000020C3B4419E749469AE7A2EB0902B2FB22
:104CB000FEF9C44609FB04F8C4E700BF704700BF13
:104CC00030B50078012827D14FF209040888A042A6
:104CD00005D1DC78412C02BF1D782E4C65702E4C1E
:104CE00024787CB108B30B3884B2062C0AD8062885
:104CF00008D8DFE800F004121E0707071600148822
:104D0000244884812548007830B10988662921D853
:104D1000602915D8002939D030BD14881D48448237
:104D2000F0E714881B480483ECE71C681948046208
:104D3000E8E714881748C461012419480470E1E7C2
:104D40006239144B1288042910D8DFE801F01113DE
:104D500015171900772915D0B1F5B57FDCD11A6880
:104D60000C4BDA6101220E4B1A70D5E79A81D3E71A
:104D7000DA81D1E71A82CFE75A82CDE79A82CBE770
:104D8000DA82C9E71288034B1A83C5E71A68014B18
:104D90001A62C1E7980000209500002094000020CE
:104DA0009700002010B50446A0B07E2200210DF12E
:104DB000020006F099FF237868468DF8003003233F
:104DC0008DF801300223ADF8043000F09FF920B0D7
:104DD00010BD000010B50446A0B07E2200210DF1E8
:104DE000020006F081FF23788DF8003003238DF850
:104DF00001300A4B1B7813B10B23ADF80230084B7E
:104E00001B7813B16123ADF8023001236846ADF879
:104E1000043000F07BF920B010BD00BF95000020E9
:104E20009400002010B50446A0B07A2200210DF1B4
:104E3000060006F059FF237868468DF800300323FA
:104E40008DF801306223ADF802300123ADF8043053
:104E500000F05CF920B010BD10B50446A0B07A2275
:104E600000210DF1060006F03FFF237868468DF81B
:104E7000003003238DF801306323ADF802300123A5
:104E8000ADF8043000F042F920B010BD10B5044672
:104E9000A0B07E2200210DF1020006F025FF23784C
:104EA0008DF8003003238DF801300A4B1B7813B1C5
:104EB0000C23ADF80230084B1B7813B16423ADF816
:104EC000023001236846ADF8043000F01FF920B02D
:104ED00010BD00BF950000209400002010B50446CE
:104EE000A0B07A2200210DF1060006F0FDFE237825
:104EF00068468DF8003003238DF801306523ADF846
:104F000002300123ADF8043000F000F920B010BDEC
:104F100010B50446A0B07A2200210DF1060006F07B
:104F2000E3FE237868468DF8003003238DF80130C6
:104F30006623ADF802300123ADF8043000F0E6F846
:104F400020B010BD10B50446A0B07E2200210DF1A6
:104F5000020006F0C9FE23788DF8003003238DF897
:104F600001300A4B1B7813B11123ADF80230084B06
:104F70001B7813B17723ADF8023001236846ADF8F2
:104F8000043000F0C3F820B010BD00BF9500002031
:104F90009400002010B50446A0B07C22002101A896
:104FA00006F0A2FE23788DF8003003238DF801303F
:104FB0004FF4B573ADF802300B4B1B782BB10D23BA
:104FC000ADF802300123ADF80430084B1B7833B143
:104FD0004FF4B573ADF802300223ADF804306846E3
:104FE00000F094F820B010BD95000020940000203F
:104FF00030B50446A1B07A2200210DF1060006F07A
:1050000073FE237802258DF8003003238DF80130DC
:105010004FF209036846ADF80230ADF8045000F0D5
:1050200075F863780D48322B0D4C0E490E4A06D0A8
:10503000342B0BD00023237003700B7004E001238A
:105040002370037000200870137505E0012323709E
:10505000002404700B70157521B030BD9500002040
:105060009600002094000020B41100200246014464
:105070004FF6FF7030B5084D914200D130BD082485
:1050800012F8013B584040F300032B4083EA5003E1
:10509000013C98B2F7D1EFE701A0FFFF38B5044615
:1050A0000D460239FFF7E2FF611911F8012C11F8E2
:1050B000023C43EA0223984203D1003818BF012082
:1050C00038BD0020FCE700000B4A13680133136071
:1050D0000A4A136801331360094A138801339BB2EB
:1050E0001380084A138801339BB21380064A138841
:1050F00001339BB213807047340100203801002037
:105100003E010020400100203C01002000222DE94A
:10511000F0470024164690F800C0437841886CF3AD
:10512000070463F30F24464D61F31F4402F108079F
:1051300005EB87077F68A74209D12F68D740FF0793
:1051400005D516B100223F4B1A70BDE8F0872F68D5
:105150000132002F08BF0126202AE7D1DFF8E480C2
:1051600016B1002288F80020012298F800602F680C
:10517000B2403A432A6006F1080205EB820254600D
:1051800005EB86120C0AC9B282F8A4C082F8A530D9
:1051900082F8A64082F8A710DA1E012A4FEA861785
:1051A00003D9A3F10F02012A46D88288E919140A0B
:1051B00081F8A8400624D2B281F8A920062B0BD989
:1051C0000023B0F804E005EB070C621CA11C73453A
:1051D000D2B25FFA81F91FD307F1A4002146284417
:1051E000FFF744FF2F443B19C2B283F8A420354493
:1051F000A31C01360134F6B2E4B2DBB2C0F30720DF
:1052000027441F2E87F8A40088F800602B7199D8D6
:105210009BE70424042BD2E700EB4301C9886444D4
:105220004FEA112A6244C9B2013384F8A4A0DBB268
:105230004C4682F8A410C8E7062BEAD90424CBE731
:1052400048010020CB000020284A2DE9F0411388B6
:1052500080469BB2092B40D9002313800122244DA4
:10526000244C2B7821689A400A4236D0224E234F94
:10527000327822B93A8892B2B2F57A7F2DD33A8841
:1052800092B2B2F57A7F2AD31D490A780132D2B29E
:105290000A70E21804EB8313117903F1A400C047EC
:1052A00001212B78226801FA03F022EA0002226031
:1052B00003F1080204EB82025068124A0B441060AA
:1052C0000022DBB21048202B3A802B700170327024
:1052D00001D023680BB900232B70BDE8F081327830
:1052E000002AD6D00021064A1170D2E740010020E2
:1052F000CA00002048010020420100203C0100209B
:10530000CD00002044010020430100202DE9F041A0
:10531000464BDFF81C811F68D8F800300646042B86
:10532000444D454C0FD92B78012B0CD06422002121
:10533000424806F0D9FC0023414A23701370414AC9
:10534000137002222A700022C8F800202B78013B3B
:10535000032B04D8DFE803F002173F51227000232B
:1053600022780132227063B164220021334806F0B2
:10537000BBFC0023324A2370137002222A70314A88
:105380001370BDE8F0813378F9B28B42227809D1ED
:1053900042B92B490A78D0B20132D2B20A70274AF8
:1053A0001354DCE7C7F307279F4201D1012AF0D04D
:1053B000632B38D8022A36D121490A78D0B201327B
:1053C000D2B20A701D4A135493781E4A02331370E6
:1053D00003232B70C3E71A4A1378D9B20133DBB227
:1053E00013703278154B5A54164A21781378994223
:1053F000B5D3023313700423EBE7114A1378D9B203
:105400000133DBB2137032780C4B5A540D4B2278B7
:105410001B789A4203D101230B4A1370D9E78CBF42
:10542000012300239CE701239AE700BF44010020E9
:105430003401002000000020C8000020D00000201F
:10544000CF000020C9000020CE0000200122014B27
:105450001A707047980000200023F0B5544A85B0B8
:105460001178CDE90233ADF8063000292FD0514D27
:10547000514C137020462978FFF710FE4F4E074617
:10548000002800F08980A378022B76D1E278237976
:1054900043EA0223ADF80630494B1B682278039398
:1054A000DBB2934207D102AB0DF106020DF10E0102
:1054B00003A8FFF705FC642200213F4806F014FC16
:1054C00000232B700223012233703E4B1A703E4B97
:1054D0003E4A1B78042B8CBF012100213C4B8BBF23
:1054E000117011705A785A788CBF0A4361F3000228
:1054F0005A70384B1968002957D1374A13889BB224
:10550000632B52D9354B11801B7813B93448FFF700
:105510006FFD344B1B7873B13148FFF75BFC3048AB
:10552000FFF7B4FC2E48FFF70DFD2D48FFF73AFCBE
:105530002B48FFF72FFD2C4B1B78002B35D028482C
:10554000FFF748FC2648FFF76DFC2548FFF784FC71
:105550002348FFF79BFC2248FFF7C0FC2048FFF7D9
:10556000D7FC1F48FFF7EEFC1D48FFF71BFC1C484B
:1055700005B0BDE8F040FFF70DBDA378042B8BD13B
:10558000E078237962791B04A17943EA00630B4335
:1055900043EA022302937FE701466422204606F095
:1055A000A3FB02232F70337091E705B0F0BD00BF5D
:1055B000CE000020CF000020D000002000000020FE
:1055C0004401002042010020CD000020CC0000203A
:1055D00074140020480100203E01002096000020A5
:1055E000980000209500002094000020024601440D
:1055F0004FF6FF7030B5084D8A4200D130BD082407
:1056000012F8013B584040F300032B4083EA50035B
:10561000013C98B2F7D1EFE701A0FFFF044A1368FD
:1056200001331360034A136801331360704700BFEE
:10563000F4090020F009002070B5124C124D2288A8
:105640002B7892B21A41D207064619D5E218917802
:10565000642202FB034303F12200B04701212B78AF
:10566000228899400133DBB292B222EA0102102B68
:1056700022802B7002D023889BB20BB900232B70A1
:1056800070BD00BF660A0020EF0900202DE9F0413F
:10569000DFF8E4800646D8F80030384D312B384F1B
:1056A000384C0ED92B78012B0BD0642200213648C0
:1056B00006F01AFB0023354A3B7013700222237058
:1056C0002A700022C8F800202B78013B032B04D855
:1056D000DFE803F002162F3B22702378013323709A
:1056E0003B785BB164220021274806F0FDFA0023D5
:1056F000264A3B701370022223702A70BDE8F081A5
:1057000033782278232B07D12ABB20490A78501CF2
:1057100008701D498B54E0E74D2B1CD1012A1AD18A
:105720001A490A78501C087017498B5403232B70B0
:10573000D3E7164A1378591C11703178124AD154A4
:105740002378112BC9D10423F1E7337822782A2B4F
:1057500004D1122AD9D001233B70BEE70A2BFAD11B
:10576000132AF8D109490A78501C087006498B544D
:105770000123074A1370DAE7F40900200100002032
:10578000EE090020ED090020020A0020010A002095
:10579000000A0020704700002DE9F04FB74BB84DCC
:1057A0001B7889B0002B00F08E80B64EB648347856
:1057B000DFF8D882611FC9B2FFF718FF033CE4B2DB
:1057C00008F1FF3318F804201B5D43EA02239842D6
:1057D0006CD100286AD0AE4B98F8022098F80910D6
:1057E0001A8098F80320B8F80AE05A7198F8042053
:1057F00098F80B409A7298F8052098F80C005A73A4
:1058000098F80620B8F80CC09A7398F8072098F812
:105810000D90DA7198F8082098F80E701A729D4A67
:10582000B8F80EA0D17092F803B098F80A10BBF146
:10583000300F98F80F805FFA8BF231D8272A17D8EB
:10584000012A00F0A880022A00F0AE80002A00F0B1
:1058500099800123642200218C482B7006F044FAC1
:10586000022100238C4A337011708C4A136027E0A8
:10587000283A082AEDD801A353F822F0B9590008B4
:10588000535800085358000853580008535800084C
:10589000D1590008DF590008F9590008135A0008C7
:1058A000642AD6D101227E4B1A70D2E764220021ED
:1058B000764806F019FA002302223370764B1A70EC
:1058C00000236E4A13702B7803F0FF06002B56D08E
:1058D0001E220021684606F007FA44F22333714A7B
:1058E000714CADF8003013786A4F8DF80230237890
:1058F0008DF80330537F8DF8043053788DF80530E0
:10590000D37F8DF80630A3788DF8073063788DF853
:105910000830FB78F9788DF809300529CBB240F2D0
:105920009380A3F12D02032A40F28780FB78642B39
:1059300020D00F210DF10100FFF758FE40F62A2379
:10594000ADF812300023ADF810001846574AD118B0
:10595000897C012940F04A81118889B21941C9071F
:1059600040F1448110B10022514B1A70514A136822
:1059700001331360002301222B704F4B1A7009B0C2
:10598000BDE8F08F19715C72D87283F80F901F74A4
:1059900083F80C805DE79974DC74587583F8169071
:1059A000DF7783F8208054E719765C76D87683F821
:1059B0001C9083F821804CE70B297FF44AAF162C0A
:1059C0007FF447AF21287FF444AF03F0C1FF40E7E5
:1059D0002D297FF43EAF0A22384B9A7439E7374BB2
:1059E0009A7C0A2A7FF435AFA3F800E01422A3F8CA
:1059F00002C0A3F806A0F0E7304B9A7C142A7FF48B
:105A000028AFA3F808E01E22A3F80AC0A3F80CA050
:105A1000E3E72A4B9A7C1E2A06D15922A3F80EE00E
:105A2000A3F810C01F719A749A7C592A02D10122DE
:105A3000DA740EE70022DA74CFE72E3B022B7ED811
:105A4000DFE803F084A0BA00013B042B04D8DFE8B0
:105A500003F00D374D5F6600A38AADF80A30E38A84
:105A6000ADF80C30238BADF80E305FE7638BADF8EB
:105A70000A30A38BADF80C30E38BF4E7000A00206A
:105A8000F8090020010A0020030A0020020A002071
:105A900020140020C810002001000020F009002080
:105AA000F81000207414002044140020660A00201E
:105AB000EC090020FC0900200C00002098110020B7
:105AC00094F820308DF80A30636A60681A0A8DF8FD
:105AD0000B301B0C8DF80D308DF80C20FEF710FFED
:105AE000A38D8DF80E008DF80F301FE7138AADF8E7
:105AF0000A305A4B1A6A8DF80C201A6A120A8DF86D
:105B00000D201A6A1B6A120C8DF80E201B0EEAE794
:105B100003238DF80A306FF0FB03039306E7504B25
:105B20001A788DF80A205A789B788DF80B208DF81A
:105B30000C30FF238DF80D304FF6FF7393E74FF6CF
:105B4000FF73ADF80A304FF0FF33E6E7454B9A7C20
:105B5000092A98BF444B1A888DF80A201A88C2F384
:105B600007228DF80B205A888DF80C205A88C2F332
:105B700007228DF80D20DA888DF80E20DB88C3F31C
:105B80000723B0E7374B9A7C092A98BF364B1A890E
:105B90008DF80A201A89C2F307228DF80B205A8942
:105BA0008DF80C205A89C2F307228DF80D209A89AE
:105BB0008DF80E209B89E2E72A4B9A7C092A98BF30
:105BC000294BDA898DF80A20DA89C2F307228DF889
:105BD0000B201A8A8DF80C201A8AC2F307228DF83E
:105BE0000D201B798DF80E30FF237CE711880133DF
:105BF00089B2002908BF3046102B7FF4A8AE1B4C99
:105C000008B10023237001202378168800FA03F1DD
:105C10003143642689B21180D11888746846002106
:105C200006FB032610F8017B06EB010C8CF82270B2
:105C300010F802CC0131BCF12A0F0BD10A2F09D187
:105C4000C9B21A4491700133DBB20F2B23703FF6B7
:105C50008AAE8BE61E29E5D1F5E700BF980000204B
:105C60007011002098110020B4110020EC090020D0
:105C700002464FF000630649184603F580639A42D6
:105C800001D2824202D28B42F6D10020704700BF7F
:105C900000000208F7B5054616460F4604F00CF85A
:105CA0002846FFF7E5FF044605EB8600FFF7E0FF17
:105CB000034600221B1B10489B0A013301A9846084
:105CC0000260C36004F0A8F8044660B104F010F864
:105CD00003B0F0BD0023022057F8242004F038F868
:105CE0000028F3D10134A64205EB8401F2DC03F075
:105CF000F5FF0020ECE700BFE8100020102307B5F7
:105D0000012201A904480193FFF7C4FF03B05DF825
:105D100004EB03F01DBE00BF002C000810B586B0D8
:105D2000044603F0C9FF00230293012301A902A83E
:105D30000593049404F070F803F0D0FF06B010BD92
:105D400070B50C460646154603F0B6FF04EB450554
:105D5000361BAC4204EB060103D1BDE8704003F0F2
:105D6000BDBF002334F8022B012003F0F1FFF0E760
:105D700001EB4202401A914200D17047435A21F888
:105D8000023BF8E730B54948494B85B003604FF412
:105D9000807383604FF4602300240125C3610B23CB
:105DA000CDE901440394057304754460036103F075
:105DB0008FFC08B101F092F93C4801A9CDE90145F9
:105DC000039503F017FB08B101F088F901230224C1
:105DD000364801A9CDE9013403F00CFB08B101F00C
:105DE0007DF901940324314801A9029403F002FBD8
:105DF00008B101F073F904252C480DEB0501CDE93C
:105E00000254019403F0F6FA08B101F067F9052491
:105E10000123264801A9CDE90243019503F0EAFADE
:105E200008B101F05BF901940624204801A902940D
:105E300003F0E0FA08B101F051F907231B4801A96A
:105E40000194029303F0D6FA08B101F047F9082350
:105E5000164801A9CDE9013303F0CCFA08B101F0ED
:105E60003DF90923114801A9CDE9013303F0C2FA34
:105E700008B101F033F910210A230C48CDE90113D0
:105E800001A903F0B7FA08B101F028F90B23112298
:105E9000CDE901230723054801A9039303F0AAFADA
:105EA00008B101F01BF905B030BD00BF4011002062
:105EB00000240140102230B5054689B00DEB0200E8
:105EC000002105F011FF2A68294B9A424DD103F5B4
:105ED0006C439A69032442F400729A619A692548D6
:105EE00002F400720192019A9A6904A942F0040234
:105EF0009A619A6902F004020292029A9A6942F047
:105F000008029A619B6903F008030393039B7F23B4
:105F1000CDE9043403F0D4FF174804A9CDE90444C3
:105F200003F0CEFF0023154C154A8021C4E900235D
:105F3000A3604FF480734FF48060C4E903132023FF
:105F4000C4E905034FF440532046E36103F026FD06
:105F500008B101F0C3F8002212202C6211466562DC
:105F600003F0B8FC122003F0E5FC09B030BD00BF1F
:105F70000024014000080140000C0140FC100020FA
:105F8000080002400000000070B500F0D9F81A4B7C
:105F90001A4D988A1A4C80B2FDF72CFE02460B4629
:105FA0004FF033301749FDF7B9FF11A3D3E90023B0
:105FB000FDF78AFEFEF780F9134B18602868196810
:105FC000FEF7D0F928602368013323602368132B80
:105FD0000DD92E682068FEF775FA01463046FEF7A7
:105FE0007DFB0A4B186000232B600023236070BDEB
:105FF0000000000000FEAF400A140020F41300204F
:10600000EC1300203333F33FF8130020F01300208B
:1060100010B5134C092221461248FFF7A9FE64204F
:1060200003F028F92288104B92B21A80628892B24B
:106030005A80A28892B2DA80E28892B21A812289CA
:1060400092B25A81628992B29A81A28992B2DA811D
:10605000E28992B21A82228AD2B21A7110BD00BFAE
:106060008611002000300008B411002038B5174B0D
:10607000174C1A88174D92B222805A88284692B23D
:106080006280DA884FF4806192B2A2801A8992B25B
:10609000E2805A8992B222819A8992B26281DA8927
:1060A00092B2A2811A8A92B2E2811B79DBB2238278
:1060B000FFF734FE214628460922FFF741FE6420FF
:1060C00003F0D8F8BDE8384003F042BC9811002036
:1060D000741100200030000810B5074C032221463F
:1060E0000648FFF745FE064B22881A8062889A8090
:1060F000A2885A8010BD00BFDC1100203034000897
:10610000FC13002038B50A4B0A4C1A880A4D22802D
:106110009A885B8828464FF480616280A380FFF7ED
:10612000FDFD21462846BDE838400322FFF708BEA2
:10613000FC130020E21100203034000800000000B1
:106140002DE9F04F824B834FD9883A78824B89B240
:1061500085B01980AAB98148814C038824F81310AE
:10616000804921F81320804921F8132001339BB284
:106170004A2B89BF0123038002803B7005B0BDE834
:10618000F08F7A4E33780BBB7449754A0B8832F81E
:106190001300B0F5E16F0ED3754C22684A2A04D87B
:1061A000704D25F812000132226001339BB24A2B58
:1061B00007D80B80E2E76F4C22684A2AF5D86A4D6F
:1061C000EFE700230B8001233370D7E7DFF8A0A1AE
:1061D000694CDAF80020002A00F0A5806749684D74
:1061E0000B6828689A423FD95E4A32F8132001337F
:1061F00002442A600B60DFF87C91D9F80020002A65
:1062000000F034815F49604D0B6828689A4240F283
:10621000CD80554A32F81320013302442A600B60C6
:106220002378002BAAD0594A1378002BA6D000233C
:106230004A4913700B805149534A0B60514913600E
:106240000B604FF47A61524ACAF8003013804C4A0E
:10625000C9F8003013604F4A237013804E4A3B70D8
:1062600011604E4A1380AFE7B0FBF2F0494B4C4D42
:10627000188080B2FDF7BEFC2DA3D3E90023FDF703
:1062800023FDB5F810B080461FFA8BFB58468946AF
:10629000FDF7B0FC28A3D3E90023FDF715FD024666
:1062A0000B4640464946FDF759FBFDF7E5FF3D4BE0
:1062B00080B2288218684FF06651B5F81090D3F874
:1062C00000B0FEF757F91FFA89F980464846FEF7F5
:1062D000F9F801464046FEF74DF9FDF79DFC18A37D
:1062E000D3E90023FDF7F0FC00220023FDF736FB85
:1062F000804658468946FDF78FFC13A3D3E9002357
:10630000FDF7E2FC02460B4640464946FDF724FBFA
:10631000FDF7D2FFFDF780FC0022234BFDF7D4FCF4
:10632000FDF782FFA8610123237064E7AFF30080CB
:106330009A9999999999C93F9A9999999999E93FFF
:106340007E8CB96B09B91E40E86A2BF6975D0D404B
:106350000A140020FD110020F81100202A1300204B
:106360002C13002094120020FE110020FC110020AC
:10637000CC130020D0130020FB110020C4130020F8
:10638000D8130020C8130020E0130020FA110020C9
:10639000DC130020D413002008000020E4130020A8
:1063A00074140020F813002000002440B0FBF2F029
:1063B0003B4B3C4D188080B2FDF71CFC2EA3D3E96B
:1063C0000023FDF781FCB5F80E80CDE900011FFA2E
:1063D00088F84046FDF70EFC29A3D3E90023FDF71A
:1063E00073FC02460B46DDE90001FDF7B7FAFDF745
:1063F00043FF2D4B80B2E8811868B5F80EB01B68DA
:106400004FF066510093FEF7B5F81FFA8BFB8046FC
:106410005846FEF757F801464046FEF7ABF8FDF741
:10642000FBFB19A3D3E90023FDF74EFC18A3D3E926
:106430000023FDF791FACDE902010098FDF7ECFB8E
:1064400015A3D3E90023FDF73FFC02460B46DDE927
:106450000201FDF781FAFDF72FFFFDF7DDFB0022BA
:10646000124BFDF731FCFDF7DFFE68610122104B96
:106470001A70D5E6AFF300809A9999999999C93F16
:106480009A9999999999E93F7E8CB96B09B91E40FF
:1064900014AE47E17A14F03FE86A2BF6975D0D40A1
:1064A000DC13002074140020F813002000002440A6
:1064B000FA1100202DE9F0414FF47A740027174DAE
:1064C000FFF70AFE164E174B6C6320462C641F70B4
:1064D00002F0D0FEB3696A2B1ADD20466C632C648F
:1064E00002F0C8FE338ADFF840809BB2A8F8003083
:1064F00020466F632F6402F0BDFEF3899BB2A8F8BB
:106500000230FFF7FFFD6C6320462C6402F0B2FE00
:106510000122064B1A70BDE8F08100BF002C01403B
:1065200074140020E8110020FC130020D811002072
:106530002DE9F0412F4B304F06463D791879FDF794
:10654000C1FF04463879FDF7C1FF2146FEF7CEF9B9
:106550002A4BEDB29A7F50B142F00202062E284F2C
:10656000284E9A7706D000233360274C3EE060F334
:106570004102F3E700213068FDF7FCFF8046284622
:10658000FDF7A0FF01464046FDF7ECFE01463060F6
:106590002046FDF7E5FE1D490646FDF7EBFF4FF0EF
:1065A0007D5105463046FDF7E5FFD7F800800146EE
:1065B0002846FDF7D7FE4146FDF7D4FE4FF0804157
:1065C00006464046FDF7CEFE31460546FEF770F919
:1065D00000B9354621462846FEF788F900B92C4611
:1065E00020460949FEF764F90028BED120463C60E8
:1065F000BDE8F081B41100202014002074140020A4
:1066000004000020D01100200000E040CDCC4C3E22
:1066100064221B4B1B485B8B10B59BB2B3FBF2F3A0
:10662000194A1380C37AD3B1184C02F0FBFB63788C
:10663000DB0714D4164B1A7B012A11D1154B18789D
:10664000FFF776FF144B1860FDF7E6FA0AA3D3E9CB
:106650000023FDF763FCFDF70FFE80B2208110BD23
:106660001A7B12B11A7B022AF9D11879FDF72AFF99
:10667000E8E700BFAFF30080333333333333E33F16
:106680004414002044160020E61300207414002057
:106690002014002034150020D41100200000000038
:1066A000254810B50378254C9B09012B14D1A3690B
:1066B000683322DBA3692D2B1FDC0022204B1A80BC
:1066C000204A138801339BB2B3F5FA6F138003D3CA
:1066D000637843F0100363700079FDF78BFA14A31D
:1066E000D3E90023FDF71AFCFDF7C6FD238980B22C
:1066F0009BB2834215D3208110BD2378DB09EBD1F7
:106700000F49104A13800A88013292B2B2F5FA6F2B
:1067100029BF62780A8063F304120B8028BF62707D
:10672000DAE723899BB2092B9CBF0A232381E3E785
:10673000333333333333E33FB41100207414002078
:10674000EE110020F0110020104B1B78082B104B8D
:10675000DA7A03D1012A17D1642206E0012A13D183
:106760009A7A012AF8D11A8992B29A81094A127842
:106770004AB10A209A89084992B242434A639B89E6
:106780009BB243430B6470470022EEE734150020B0
:1067900074140020D8110020002C0140194B10B5B2
:1067A0005A6919496832194818DB194A1278042ABB
:1067B00014D11A78520611D5002402880C800132B7
:1067C00092B2B2F5FA7F29BF5A78028042F00202F3
:1067D0005A7022BF0F4B04801C7010BD00240A8821
:1067E0000480013292B2B2F5FA7F29BF5A780A804A
:1067F00064F341025A7021BF0122064B0C801A70CB
:10680000EBE700BF74140020EA110020EC11002017
:1068100034150020F611002010B5154CA3696A2B21
:10682000637F08DD012123F0080363771148BDE889
:10683000104001F049BC43F008036377A3694C2B77
:1068400009DDA369672B06DC01220B4B03210948F4
:106850001A7001F039FCA3692E2B07DDA369492BBF
:1068600004DC0122044B05211A70DFE710BD00BFD4
:1068700074140020341500200D00002010B5124BB8
:10688000DA7A9AB19A691149002A11480FDD9A699A
:10689000692A0CDC00220A7002780132D2B2182A6E
:1068A000027003D91A7842F080021A7010BD0024D9
:1068B0000A7804700132D2B2182A0A70F6D91A780E
:1068C00064F3C712F1E700BF74140020D91100204F
:1068D000DA110020184B10B51B78ABB1174B9A7A20
:1068E000012A25D11A8AD9891548521A92B2B2F5CD
:1068F0007A7F4FF00001134C0DD9228801800132BC
:1069000092B2C72A01D8228010BD1A78218042F0A5
:1069100040021A70F8E702882180013292B2C72A39
:1069200001D80280F0E71A78018061F38612F0E75F
:106930001A7822F04002ECE70914002074140020B9
:10694000F2110020F411002064232C4A40F6D86193
:10695000938100239361516101211382D381D1720C
:106960000021937253705370537093805377538008
:106970001377137093771162214A9382D382138322
:1069800053839383D38382F820305362938553706B
:106990001370937051609160D16011613521194A73
:1069A000138011715380937193725372D371537327
:1069B00013739373D373137493749375137613775C
:1069C000114A13805380D380D38053819381D38124
:1069D000138213719374D3740C4A13805380D38041
:1069E000D38053819381D381138213719374D374B1
:1069F000074A137053709370704700BF74140020DF
:106A00004414002020140020B4110020981100200C
:106A10007011002010B5114C01224021204603F0D6
:106A200029FB3C2002F026FC00224021204603F0F6
:106A300021FB3C2002F01EFC01224021204603F0F5
:106A400019FB3C2002F016FC20460022402103F0F6
:106A500011FBBDE810403C2002F00CBC000C0140D2
:106A600010B5294C01224021204603F003FB3C20B5
:106A700002F000FC00224021204603F0FBFA3C20FB
:106A800002F0F8FB01224021204603F0F3FA3C20FB
:106A900002F0F0FB00224021204603F0EBFA3C20FC
:106AA00002F0E8FB01224021204603F0E3FA3C20FB
:106AB00002F0E0FB00224021204603F0DBFA3C20FC
:106AC00002F0D8FB01224021204603F0D3FA3C20FB
:106AD00002F0D0FB00224021204603F0CBFA3C20FC
:106AE00002F0C8FB01224021204603F0C3FA3C20FB
:106AF00002F0C0FB20460022402103F0BBFABDE8B3
:106B000010403C2002F0B6BB000C01400A4B07B518
:106B10005A69012142F001025A615B69002203F0C7
:106B2000010301930B20019B02F0D4FE0B2003B064
:106B30005DF804EB02F0FEBE0010024010222DE9C9
:106B4000F04188B00DEB0200002105F0CDF8274B95
:106B5000DFF89C809A69274D42F020029A619A6979
:106B6000404602F020020192019A9A6948F280019F
:106B700042F004029A619A69002402F0040202922F
:106B8000029A9A69012742F008029A619B690022E1
:106B900003F008030393039B03F06CFA00222846DA
:106BA0004AF2581103F066FA022648F28003404682
:106BB00004A9CDE90437CDE9064603F081F945F291
:106BC0002003284604A9CDE90434069403F078F99B
:106BD0004AF25813284604A9CDE90437CDE9064600
:106BE00003F06EF908B0BDE8F08100BF001002406C
:106BF00000080140000C0140202108B5114803F0B5
:106C000033FA114A114978B90B7810700133DBB2AD
:106C1000042B01D80B7008BD087001210C4A1378B1
:106C200061F387131370F6E70020137808700133BF
:106C3000DBB2042B81BF1070054A137860F3871311
:106C4000F0E700BF000C01409814002099140020C8
:106C50004414002010B594B0102200210CA805F0B7
:106C600043F8142200210DEB020005F03DF810223C
:106C7000002101A805F038F802244FF480330921DF
:106C80000122CDE90A13CDE911434FF4E0130AA81C
:106C90000E921092139303F001FA08B172B6FEE758
:106CA0000F23CDE905344FF480630790CDE9083018
:106CB000214605A803F0B8FB08B172B6FEE74FF411
:106CC00000730322CDE901234FF4004301A803938D
:106CD00003F066FC08B172B6FEE714B010BD000008
:106CE0002DE9F84FAEA7D7E900670FF2BC29D9E923
:106CF000008902F09BFAFFF7ADFFFFF71FFFFFF7D8
:106D000005FFFFF73FF802F02FF801F09BFF02F0BC
:106D100039F902F05DF900F087FEA74804F03AF86F
:106D20000021A64804F006FB0C21A44804F002FB55
:106D3000A34802F04BFD0B22A249A14802F014FC2B
:106D400000F072FE00F0C2FEFFF7FEFD9E4801F06B
:106D50007DF90020FFF7AEFB012208219B4803F0DC
:106D600089F9642002F086FA08219848002203F08D
:106D700081F90122964B1A70FFF772FEFEF70AFDA9
:106D8000FEF764FB934802F04DF8934802F04AF88E
:106D9000924802F047F8924802F044F8914802F015
:106DA00041F8914802F03EF8904802F03BF8904DCF
:106DB000904C2B78DFF81CA263B98F4B1B784BB13A
:106DC00023783BB19AF8103013B98C4B1B780BB178
:106DD00001232B70DFF828B29BF8003023B9FFF7AE
:106DE00017F901238BF80030DFF818B29BF8133045
:106DF0004BB1FFF73BF9002364208BF8133002F00E
:106E000039FA02F0A5FDFFF739FDFFF763FD9AF8A7
:106E100006300BB1FFF7C2FCFEF71EFB00F09CF939
:106E20002B780BB1FEF7B8FC02F070F9237803F071
:106E3000FF05F3B94FF0010A84F800A000F058FFF5
:106E40002A467149714803F089FD2A4670496F4806
:106E500003F08EFE6E496C4800F08CFE044682B250
:106E600051466A4803F012FF02216848220C03F0E1
:106E70000DFF684CE37A012B01D100F0E9FF574880
:106E8000837BE3B101F0CEFF637B012B39D1637AC1
:106E9000012B36D100F086FF00F0DAFF01F04AF84E
:106EA0005D4B5A7F910642BF5A7F22F020025A77EB
:106EB0005A7F520642BF5A7F22F040025A7741F26F
:106EC0006F71564A138801339BB28B4233D81380BB
:106ED00000F042F900F004F9514B1A781AB100227F
:106EE0001A70FFF797FD00F04DFD00F067FD4D4B68
:106EF0001A78002A3FF45BAF00221A70FEF7FEFEFC
:106F000055E700224049414803F028FD002240494E
:106F10003E4803F02DFE3E493B4800F02BFE044660
:106F200082B20121394803F0B1FE02213748220C18
:106F300003F0ACFEB0E7002310212448138003F0D7
:106F40009EF801F0EDFD1F4B588A374B80B2D3F805
:106F500000A0FCF74FFE16A3D3E90023FCF7DEFFE9
:106F6000044650460D46FCF757FE02460B462046A7
:106F70002946FCF7A9FE02460B4630463946FCF787
:106F8000EBFC42464B46FCF7C9FF284B0022FCF7BE
:106F9000E5FCFDF791F9204B186299E7AFF300800B
:106FA000E17A14AE47E1F63F22FDF675E09C713FB1
:106FB0000000000000FEAF40A0150020E8150020F2
:106FC000401100200A14002034150020000C01405C
:106FD000D0140020A816002094160020801600204F
:106FE0006C16002058160020441600203016002091
:106FF00009140020F51400200C0000209700002048
:1070000008140020981100201315002018150020E6
:107010000F15002020140020741400209C14002060
:10702000E8130020F8100020F81300200000394079
:1070300008B502681E4B9A4230D11E4801F006FF87
:107040001D4801F003FF1D4801F000FF1C4801F03E
:10705000FDFE1C4801F0FAFE1B4801F0F7FEFFF7A9
:107060000DFCFFF7C9FD194B1B7873B1184B1B784A
:107070005BB10020FFF7CCFAFFF712FB00F092F8AB
:1070800000F096FB134801F07FF8FFF75DFB124A12
:1070900013780133DBB2012B01D8137008BD002334
:1070A0001370FEF7BBFABDE80840FEF70DB800BF4D
:1070B00000040040A8160020941600205816002056
:1070C00044160020301600208016002009140020ED
:1070D00008140020341500209A14002072B6FEE730
:1070E00010B5164B1B78062B14D1154B1B789B063D
:1070F00010D5144A144B117869B10021134841622C
:107100001348046A1C60046A186884420FD11B6823
:107110006BB1117010BD1A684AB10D490A6A1B683B
:10712000D31A0A6A9342F5D2084A5362F2E7094A2F
:10713000138801339BB21380ECE700BF34150020A5
:1071400074140020A4140020A01400204414002073
:10715000980000209E1400206420104A104B918952
:1071600089B29982D18989B2D982118A89B2198367
:10717000518A89B25983918A89B29983D18A89B215
:10718000D983D169B1FBF0F1C9B283F82010128B19
:1071900092B2B2FBF0F29A85704700BF98000020CF
:1071A000441400202DE9F0419F4C2378C3F30113D0
:1071B000012B13D19D4B9E4A1B789E49062B00F054
:1071C000C78013789B09012B40F0C2800B880133E4
:1071D0009BB2B3F5FA6F80F0B4800B80637803F054
:1071E0000303012B40F0F980934B1B7803F0FF055C
:1071F000002B40F0F2802A460821904802F03AFF26
:107200004FF480418D4802F02FFF01288C4A8D49B0
:1072100040F0AB800B88158001339BB2B3F5967FAD
:1072200080F09C800B806578C5F381084546012D70
:107230000AD1854F3B783BB1844E3378002B00F068
:10724000A380012B00F0AC80814E3378002B32D02C
:1072500040F6AB51764B5A8B92B28A427D4905D9A2
:1072600042F20F705A8B92B2824219D940F6AB505B
:107270009A8B92B2824205D942F20F705A8B92B227
:1072800082420DD940F6AB50DA8B92B2824240F284
:10729000B28042F20F705A8B92B2824200F2AB80FF
:1072A0000A88013292B2B2F5FA6F0A8003D39A7853
:1072B00042F001029A70684D2B78D3B140F6AB5181
:1072C0005B4B64485A8B92B28A42644940F29C807C
:1072D00042F20F775A8B92B2BA4200F295800027A1
:1072E00002880F80013292B2B2F5FA6F80F0868088
:1072F00002806378C3F30113012B40F0D6804C4B1E
:1073000057499A8A92B2B2F57A7F0AD3DA8A92B250
:10731000B2F57A7F05D3DA8A92B2B2F57A7F80F03D
:10732000A78000200A88013292B20A804D49B2F546
:107330007A6F0880C0F0B9805A7842F040025A70E3
:10734000B3E000230B80537843F00403537045E708
:1073500000205378088060F38203F7E7344A0D80F9
:10736000937843F0020393705DE713880D80013337
:107370009BB2B3F5967F01D2138054E715802C4A57
:10738000937865F34103EEE7374801F04BFD424641
:107390004FF40041294802F06DFE86F8008053E763
:1073A000314B9B79002B3FF44FAF4FF48051234872
:1073B00002F05AFE1E4A012853784FF400410CBFD8
:1073C00023F0080343F0080353701C48002202F026
:1073D00051FE00233B70337036E701220821174825
:1073E00002F048FE214B5B7A002B3FF42DAF0022C8
:1073F000114B1A7028E700230B805CE79A7807800E
:1074000042F001029A7074E700270A88078001326F
:1074100092B2B2F5FA6F01D20A806AE79A780F80C9
:1074200067F30002EEE700BFB4110020341500201E
:1074300044140020B4140020A7140020000C0140C4
:10744000CA140020CC140020D0140020A614002060
:1074500094000020C814002095000020C6140020CD
:10746000BC140020BA14002094160020A816002096
:1074700000220A808C4A1178C90916D140F2DB52E9
:10748000988A80B2904210D9D88A80B290420CD9A2
:10749000188B80B2904208D942F20F778348028855
:1074A000013292B2BA4246D80280A378C3F30113E4
:1074B000012B14D17E4F4FF000087868FDF746FA93
:1074C000C0B23B287B4A42D949F63F417A4BA3F8E8
:1074D0000080138801339BB28B4231D8138023780C
:1074E000C3F38103012B40F08F803378002B60D0F1
:1074F0006F4B7248998A628989B292B291420BD2DB
:10750000D98A628989B292B2914205D2198B628975
:1075100089B292B2914230D30021694A1180028827
:10752000013292B2B2F57A6F028042D35A7842F0B9
:1075300001025A703DE05A78018061F38612FEE63E
:107540007B78A2F8008043F020037B70C7E778685F
:10755000A2F80080FDF7FAF9C0B23628BFD849F684
:107560003F41554A138801339BB28B42B6D97B7891
:10757000A2F8008068F34513E7E700210180988AAC
:10758000A28980B292B2904213D2D88AA28980B2E4
:1075900092B290420DD2188BA28980B292B29042E0
:1075A00007D247480288013292B2B2F57A6F16D2FA
:1075B00002802B7843B33E4B998A628989B292B29A
:1075C00091423E4910D30A88013292B2B2F57A6FE5
:1075D0000A8019D35A7842F001025A7014E05A789E
:1075E000018061F30002A4E700200880998AA28943
:1075F00089B292B2914232494DD20A88013292B296
:10760000B2F57A6F42D20A80237803F00303012B8C
:1076100040F08C803378F3B1254B998A228989B266
:1076200092B2914227490BD3D88A228980B292B272
:10763000904205D3188B228980B292B2904245D2F3
:10764000002042F20F76204A10800A88013292B25E
:10765000B24222D80A802B78002B67D0144B00202E
:10766000998A228989B292B29142164D16494ED218
:10767000088042F20F712A88013292B28A422A802F
:1076800054D95A7842F002025A704FE05A78088072
:1076900060F30002A1E70880B6E75A78088042F05C
:1076A00002025A70D7E700BF74140020BA140020F9
:1076B00044140020B2140020B0140020C014002094
:1076C000BE140020C4140020C21400200020088032
:1076D000998AE28889B292B29142BCD3D98AE2886F
:1076E00089B292B29142B6D3198BE28889B292B232
:1076F0009142B0D342F20F7629490A88013292B200
:10770000B242A7D95A78088060F34102C9E72880BD
:107710009D8AE288ADB292B295422AD342F20F75A9
:107720000A88013292B2AA421ED80A8063789B0965
:10773000012B17D11B4B1C48998D228A89B292B21A
:1077400091421A491DD39D8DE289ADB292B2954204
:1077500017D8002402880C80013292B2B2F57A6FF9
:1077600009D20280BDE8F0815A78088060F34102B6
:107770008AE70880DAE75A78048064F304125A70C2
:10778000F0E700240A880480013292B2B2F57A6FE1
:1077900001D20A80E6E75A780C8042F01002EEE748
:1077A000C214002044140020B6140020B814002095
:1077B00070B56D4D6D4C6B7813F0040FC3F3800200
:1077C00006D00221637861F383036370684B1A70FB
:1077D0006B78180706D50222637862F3830363701F
:1077E000634B1A70AB78634E13F0020FC3F3400182
:1077F00014D06148614B027822B91A7801700132C5
:107800001A7031701B78022B637840F2A780022235
:1078100062F3830303226370554B1A706378D907B0
:1078200007D50222637862F3830304226370504B0E
:107830001A70AB78DA0707D50222637862F3830304
:10784000052263704A4B1A706B785B0607D50222DB
:10785000637862F3830306226370454B1A706B787A
:107860009806C3F3401206D5637862F383030722B8
:1078700063703F4B1A706378D90607D5022263788C
:1078800062F3830308226370394B1A7063789A0796
:1078900007D50222637862F3830309226370344BB5
:1078A0001A706B7813F0010206D0637862F38303D9
:1078B0000A2263702E4B1A706B78C3F340029B0749
:1078C00006D5637862F383030B226370284B1A702A
:1078D0006B78D806C3F3001206D5637862F383038E
:1078E0000C226370224B1A706B78DB0907D00222DE
:1078F000637862F383030D2263701D4B1A70337833
:10790000CBB11E4A1378022B05D92378C3F3C011DB
:10791000DB0910D1117008210122194802F0AAFBDD
:10792000AB78990707D40022134B082114481A702A
:10793000327002F09FFBAB787BB96B786BB96378E0
:107940009A070AD46378DB0607D4637813F0010240
:1079500002BF637862F38303637070BD012262F338
:10796000830363705AE700BF44140020741400209E
:10797000AA140020D1140020CE140020CF1400201F
:10798000000C014010B5094B09491A780B78934255
:107990000AD00848084C03780A70E2540133DBB27D
:1079A000052B28BF0023037010BD00BFAA140020C0
:1079B000A9140020A8140020AB1400200B4808B51F
:1079C000437B8BB101F02EFA094A0A4913780A4821
:1079D000C95C0133C9B2C1770849DBB209781370B9
:1079E00099429CBF0023137008BD00BF30160020D1
:1079F000A5140020AB14002074140020A81400204B
:107A00000023054A1370054A1370054A1370054A8E
:107A100013601371704700BFAA140020A91400203E
:107A2000A8140020AB1400204FF0FF3313B5154A03
:107A300015480024C0E900234FF48073ADF80040DE
:107A40008DF802400194836003F0DAF808B1FFF783
:107A500045FB012269460C48ADF800408DF8024014
:107A600002F02AFF08B1FFF739FB084B0122064854
:107A700001A9019303F026F808B1FFF72FFB02B02C
:107A800010BD00BF002800401815002001010100B2
:107A900007B50B4B02689A420FD102F0F9FA094B75
:107AA000DA6942F00062DA610122DB6903F0006307
:107AB0000193019B044BC3F83C2403B05DF804FB25
:107AC0000028004000100240000042420023194AF2
:107AD000137053709370184A137093705370D3706F
:107AE000164A137053709370154A13709370537045
:107AF000D370144A137053709370134A13705370F9
:107B00009370124A137053709370114A137053702C
:107B10009370104A1370104A1370104A1370104A71
:107B20001370104A1370104A1370104A1370104AE1
:107B300013707047131500200F1500200C1500203E
:107B4000081500200515002002150020FF14002054
:107B5000FC140020FB140020FA140020F91400206B
:107B6000F8140020F7140020F6140020F21400206E
:107B7000F31400200C2270B54B78C3F10E0595FB71
:107B8000F2F5CA78EDB202F5D4521032541B89785E
:107B9000174AA6B20A444FF4C871B6FBF1F1C4F318
:107BA0008D0422440A4440F26D1101FB06226FF05D
:107BB000630196FBF1F6992105EB4505033B03EBC9
:107BC0008503DBB24B4305210233B3FBF1F33C24C5
:107BD000324413444278017862434FF4616404FBF9
:107BE0000122817803480A4400FB032070BD00BFD6
:107BF0004745DAFF805101002DE9F04790464AF6EB
:107C0000C0028318B3FBF2F306463648364A1844DE
:107C100047F62C5303EB50039C000334B4FBF2F4FF
:107C2000894640F2B5516243A3EB92039A000332B6
:107C3000B2FBF1F24FF0990E40F2FA5A5143A3EB26
:107C4000910303EB83010231B1FBFEFCB1FBFAF1BE
:107C500004EB840404EB840489B202EB84040C4436
:107C60000CF1030201EB4101A2EB810288F8012033
:107C700005220EFB0CFC0CF1020CBCFBF2FC4FF4D9
:107C800061653C27A4F594540133A3EB0C03103C2D
:107C900088F8023007220023002188F803404008BA
:107CA000FCF774FE114BB6FBF5F5B6FBF3F3B6FB30
:107CB000F7F7ADB203EB4303BFB2A5EBC303C5EBCC
:107CC0000515A7EB8505C7EB0717A6EB870688F810
:107CD000002089F8003089F8015089F80260BDE879
:107CE000F08700BF177B4A00B13A020080510100C3
:107CF00070B5264C0121204602F0D0FF244D022110
:107D00002880204602F0CAFF224B234A18802B8885
:107D1000224D43EA00431360106821492A46FFF7C9
:107D20006BFF6B78EA78A978022B4FF017064FF0BB
:107D30000905A1736373E27302F5FA601AD87343FD
:107D4000B3FBF5F3043101440B444FF4C87102F264
:107D5000CF72B2FBF1F103EB92030B446421B2FB4F
:107D6000F1F29B1A0722B3FBF2F2C2EBC2029B1A9A
:107D7000237370BD7343B3FBF5F3642207310144F1
:107D80000B44B0FBF2F203EB9003EAE71815002076
:107D9000E6140020E4140020DC140020D21400209B
:107DA000D6140020002213B5234C6946E37B2348F8
:107DB0008DF80030237C8DF8022001928DF801307F
:107DC00002F07AFD08B1FFF789F900221C491B482F
:107DD00002F0C4FD94F8203000228DF80630E37FD5
:107DE00016488DF8053094F8213001A98DF8073038
:107DF00002F068FE08B1FFF771F9002211490F483F
:107E000002F0B6FE01A96846FFF7B4FE0E4C012150
:107E100020602268094892B202F038FF22680221ED
:107E20000648120C02F032FF084A537F43F0200349
:107E3000537702B010BD00BF201400201815002099
:107E4000131500200F150020E014002074140020EA
:107E5000F0B52E4F2E4BBA7CFD7CD2B2EDB21A702B
:107E60005D707B7DBC7D2B49DBB2E4B20B704C7046
:107E7000397E7E7E2848C9B2F6B201704670F87E1F
:107E80003F7FDFF898C0C0B2FFB28CF800008CF8DA
:107E90000170DFF88CC09CF800C0BCF1000F18D056
:107EA000DFF880C0BCF800C0BCF1010F17D101EBB6
:107EB000810101EB81011C4B06EB810600EB800088
:107EC000B6B200EB80001E8007EB8007174BBFB2F5
:107ED0001F80174A537F43F040035377F0BDBCF136
:107EE000020FF6D102EB820203EB830302EB820264
:107EF00003EB830305EB820504EB83040A4A0B4B77
:107F0000ADB2A4B215801C80E3E700BF20140020AE
:107F10000515002002150020FF140020FC1400208D
:107F2000EA140020E8140020EC140020EE140020D5
:107F300074140020F0B5374A374C1378527803EBAD
:107F4000830303EB830302EB83039BB22380334B56
:107F500033499B7A012BDEB2324B58D11A78324D1D
:107F60003248FAB9324A1670324A334E1278062A2B
:107F700000D042BB314F3A787F7802EB820202EBAD
:107F8000820207EB82022E4F92B22A803A787F78E3
:107F900002EB820202EB820207EB820292B20280C3
:107FA0000122328006882A88B6B292B2964226888A
:107FB0002A88B6B292B21ED296421ED305220A7009
:107FC00001221A70F0BD1F4F3A787F7802EB8202CF
:107FD00002EB820207EB82021B4F92B22A803A78B0
:107FE0007F7802EB820202EB820207EB820292B2FE
:107FF00002800222D5E7964205D324880288A4B2E3
:1080000092B29442DAD303220A700022D9E7002206
:108010000A70D6E713150020F01400202014002069
:10802000F3140020EA140020EC140020EE140020C9
:10803000F41400200F150020E8140020FF14002085
:10804000FC140020051500200215002000230A4A18
:1080500003804260094A03668260094AC260094A95
:108060000261094A4261094A8261094AC261094AB8
:108070004262094A82627047018700084989000804
:10808000E9800008D9810008D5870008ED83000841
:1080900049850008018300083D870008036E10B47D
:1080A000182B09DC00EB4304013384F82C1084F80E
:1080B0002D2010BC03667047002310BC03660148E6
:1080C00003F032BD34C6000809290A4606D80178F3
:1080D000914206D041700270FFF7E0BF014803F003
:1080E00023BD70474CC6000838B5204D204C2B7876
:1080F00013B3002202212A70237861F30403237052
:108100000123E372A3721B4B1A7023789B060AD5D6
:10811000637F62F300036377637F0B436377637F5F
:1081200062F382036377144800F07CFE00224FF470
:108130008071124801F09EFF0F4B9B7A23B9104BC0
:108140001B889BB2022B04D101210E482970FFF736
:10815000BBFF637813F00C0F07D0012308212B70AD
:108160000848BDE83840FFF7AFBF38BD0D0000201C
:1081700074140020F6110020A8160020000C014005
:108180002014002034150020037800EB83035B6883
:10819000184700000C4B9A696A2A0C4A11DD9B694A
:1081A000812B0EDC138801339BB24F2B01D8138037
:1081B0007047002301211380054B06481970FFF713
:1081C00083BF0023F3E700BF7414002032150020A2
:1081D0000D0000203415002070B53E4D3E4C2B782C
:1081E0007BB3002303212B70227861F304022270F9
:1081F0000122E272394AA37213702278920617D5CF
:108200002278374963F345122270364A4B62136075
:10821000627F63F300026277627F42F0020262775C
:10822000627F63F3820262770A7863F345120A7011
:108230002D4800F0F7FD00224FF480712B4801F02B
:1082400019FF294B2A4E1B7AF3B1637813F00C0FF8
:108250001AD1318889B2042904D1012325482B7011
:10826000FFF732FFB37A012B0ED1F379012BDAB28B
:108270000AD1214B1B78052B06D104211F4B1D4829
:108280002A701970FFF720FF33889BB2062B07D1A5
:10829000637F23F001036377637F23F00203637737
:1082A0000020FFF777FF6378C3F38103022B07D128
:1082B000012308212B700F48BDE87040FFF704BF71
:1082C0006378C3F38102012A02D109212A70F2E7FF
:1082D00070BD00BF0D00002074140020F6110020B6
:1082E00044140020A0140020A8160020000C014017
:1082F0002014002034150020F314002098150020CD
:10830000224B10B51A7812B3002408211C70204BA0
:1083100020481A7861F304021A70DC729C721A7891
:1083200064F345121A705A7F42F002025A775A7F5C
:1083300064F300025A775A7F64F382025A7700F09E
:1083400071FD22464FF48071134801F093FE134BE8
:108350001B889BB2062B08D10D4A537F23F00103E3
:108360005377537F23F0020353770A4B9B7B63B110
:108370000122074BDA725B7813F00C0FC3F3810014
:1083800003D1BDE81040FFF705BF10BD0D00002070
:1083900074140020A8160020000C014020140020B6
:1083A0000E4B9A694C2A0E4A15DD9B69672B12DC2D
:1083B000138801339BB2502B01D0138070470023E8
:1083C00013800122074B1A7018B903210648FFF7E2
:1083D0007BBE0421FAE70023EFE700BF74140020FE
:1083E000301500200D0000203415002070B54C4DD4
:1083F0004C4C2B784BB3002305212B70227861F372
:10840000040222700122E272474AA372137022789A
:10841000920611D5227863F345122270434A136005
:10842000627F63F300026277627F42F0020262774A
:10843000627F63F3820262773D4800F0F3FC002222
:108440004FF480713B4801F015FE3B4E33889BB2E0
:10845000062B07D1637F23F001036377637F23F04B
:1084600002036377324B1B7BBBB1637813F00C0FB5
:1084700013D133889BB2042B05D1012306212F4849
:108480002B70FFF721FE33889BB2052B05D101230A
:1084900006212A482B70FFF717FEB37A012B13D160
:1084A000F379012BDAB20FD1254B1B78052B1ED1A6
:1084B0000626244B10211F482A701E7001F0DAFD99
:1084C00031461E48FFF700FE0020FFF763FE002044
:1084D000FFF766FF6378C3F38103022B17D10123F3
:1084E00008212B701548BDE87040FFF7EDBD337AC9
:1084F000012BE9D1637F23F001036377637F43F0AE
:1085000002036377637F23F004036377DCE7637818
:10851000C3F38102012A02D109212A70E2E770BD6A
:108520000D00002074140020F6110020A01400207B
:10853000A8160020000C0140201400203415002053
:10854000F314002098150020F8B54B4D4B4C2B78B8
:108550004B4E002B38D0002106222970237862F37D
:10856000040323700123E372A372627F1A436277CC
:10857000627F61F341026277424A13702178C1F34E
:108580004012890605D440494A6240490A60404A7F
:108590001370237843F020032370B37A012B0DD19D
:1085A000F379012B0AD13B4B1B783BB93A4B1B7833
:1085B000052B02BF637F43F004036377374800F065
:1085C00031FC0122364B1A70344FFB792BB101225A
:1085D0004FF48071334801F04DFDB37A012B0ED179
:1085E000F379012BDAB20AD12B4B1B78052B06D07D
:1085F00005212D4B2D482A701970FFF765FD338832
:108600009BB2062B02D07379012B0AD10123284A91
:108610002B70137000221F4B052124481A70FFF79E
:1086200053FD3B7C63B11D4800F0FCFB33889BB2DB
:10863000052B05D0012305211C482B70FFF744FDB5
:108640000120FFF7A7FD0120FFF7AAFE6378C3F31F
:108650008103022B07D1012308212B701348BDE8A9
:10866000F840FFF731BD6378C3F38102012A02D1DC
:1086700009212A70F2E7F8BD0D00002074140020D3
:1086800020140020E813002044140020A01400202F
:10869000A41400202C150020F3140020A81600209C
:1086A000A7140020000C014098150020341500206C
:1086B0002D1500200E4B9A692E2A0E4A15DD9B6956
:1086C000492B12DC138801339BB2502B01D013804D
:1086D0007047002313800122074B1A7018B9052137
:1086E0000648FFF7F1BC0621FAE70023EFE700BFD9
:1086F000741400202E1500200D00002034150020D9
:1087000008B50C4B1A784AB1002201211A700A4AA6
:10871000137861F304031370FEF77EF80020FFF76F
:1087200039FD0020FFF73CFEBDE808400020FFF7C0
:10873000C1BF00BF0D00002074140020F8B5204D0B
:10874000204C2B788BB1002209212A7023781E48F7
:1087500061F30403237001234FF48071E372A2726A
:1087600001F088FC194800F05DFB184B9B7A9BB127
:10877000637813F00C0FC3F381060DD13046FFF779
:1087800009FD2378C3F340179B0612D53846FFF73F
:1087900007FE3846FFF78EFF6378C3F38103022B91
:1087A0000CD1012308212B700948BDE8F840FFF7E0
:1087B0008BBC3046FFF7F4FD3046EBE7F8BD00BF59
:1087C0000D00002074140020000C0140A8160020A9
:1087D00034150020F8B5324D324C2B78324FC3B1EE
:1087E000002204212A702378304861F304032370A7
:1087F0000123E372A3723A70227892065CBF2C4A7E
:10880000137000F00FFB00224FF48071294801F033
:1088100031FC294E33889BB2062B0DD1637F032197
:1088200023F001036377637F244823F00203637717
:1088300001232B70FFF748FCB37A012B20D1F37989
:10884000012BDAB21CD11E4B1B78052B03D02A70EA
:1088500003221C4B1A700120FFF79CFC3B7813B1DC
:108860000120FFF727FF6378C3F38103022B0ED1AA
:10887000012308212B701148BDE8F840FFF724BC04
:1088800033889BB2022BE6D101232B70E0E763789B
:10889000C3F38102012A02D109212A70EBE7F8BD56
:1088A0000D00002074140020F6110020A8160020EE
:1088B000F7110020000C0140201400203415002086
:1088C000F314002098150020174A1848137823F055
:1088D000200313700123D372002393725370137714
:1088E000517F63F300015177517F63F34101517769
:1088F000517F63F3C3015177517F63F304115177C3
:10890000017863F34511017043629377084A5380FD
:108910001380084A1370084A1370084A1370084AF3
:108920001370084A13607047741400204414002028
:1089300020140020F61100202C1500202D150020F9
:10894000A4140020A014002070B51F4E1F4C3378D3
:1089500003B30122002523781D4862F3040323702A
:108960001C4B1D701C4B1A701C4B1D70E272A572C3
:1089700000F058FA2A464FF48071194801F07AFB4A
:10898000184B1B889BB2022B02D13570FFF79CFF5E
:10899000FFF736F80E4B5B7C13B10022124B1A66C0
:1089A0000020FFF7FDFC0020FFF784FE637813F042
:1089B0000C0F07D00123082133700B48BDE870402D
:1089C000FFF782BB70BD00BF0D00002074140020B3
:1089D000A8160020F7110020D0140020F611002066
:1089E000000C014020140020341500200E4B82B0F2
:1089F0009A6942F001029A619A6902F001020092BA
:108A0000009ADA6942F08052DA61DB69074A03F0C2
:108A100080530193019B536823F0E06343F000739C
:108A2000536002B0704700BF0010024000000140D8
:108A3000FEE7FEE7FEE7FEE7FEE770477047704798
:108A400000F006BC014801F07BB800BFFC1000201C
:108A5000014800F04FBC00BF40110020014802F067
:108A6000C7B900BFA0150020014802F0D1BD00BF6A
:108A700004170020014802F0CBBD00BFBC16002047
:108A800070B50D4614460E46731B9C4201DC204611
:108A900070BDAFF3008006F8010BF5E770B50D4629
:108AA00014460E46731B9C4201DC204670BD16F82E
:108AB000010BAFF30080F5E74FF0FF3070474FF444
:108AC000005300204B607047012070470020704722
:108AD0000B4A0346116810B509B90A4911601068BC
:108AE00009490A4C0344091B8B4206D903F04AF991
:108AF0000C2303604FF0FF3010BD1360FCE700BF94
:108B00009C150020D8180020005000200004000010
:108B1000014B024A9A60704700ED00E000380008FF
:108B2000F8B5414B188880B2FBF764F800223F4B40
:108B3000FBF7CAF830A3D3E90023FBF7C5F8FBF72E
:108B4000BBFB3B490646FBF715FDFBF765F8044602
:108B500030460D46FBF760F802460B4626A1D1E9E8
:108B60000001FAF7F9FE02460B4620462946FBF7BC
:108B7000D5F9FBF7A1FB2F49FBF7B0FDFBF74CF84C
:108B800003F060FB1EA3D3E90023FBF79DF81EA3AF
:108B9000D3E90023FAF7E2FE02460B4600202649FD
:108BA000FBF7BCF9FBF788FBFBF736F818A3D3E912
:108BB0000023FAF7D1FE0022204BFAF7CDFE16A3D0
:108BC000D3E90023FBF780F81D4E044677680D4675
:108BD0003846FBF721F812A3D3E90023FBF774F81A
:108BE00002460B4620462946FAF7B8FEFBF764FB1F
:108BF0007060F8BDAFF300803333333333330B4051
:108C000012805B12805B323F83DBB5DCE1796B3F26
:108C100066666666661271409A9999999999A93F14
:108C2000666666666666EE3F0A1400200000303F06
:108C30000000FA4400401C460000F03F00001040D5
:108C4000441400207FB51022002102A803F04CF844
:108C500040F2F312144815490023C0E900124722DC
:108C6000CDE90033C0E9032383608023836102F0F0
:108C700085F908B1FEF732FA4FF480530A4802A989
:108C8000029302F061FA08B1FEF728FA0023694660
:108C90000548CDE9003302F04FFB08B1FEF71EFA9C
:108CA00007B05DF804FB00BFA015002000040040E1
:108CB0000268084B82B09A420AD103F564439A696C
:108CC00042F400629A619B6903F400630193019B83
:108CD00002B07047002C014007B50E4B02689A4263
:108CE00015D103F50333DA69012142F00202DA619A
:108CF000DB69002203F0020301931D20019B00F0B9
:108D0000E9FD1D2003B05DF804EB00F013BE03B0D5
:108D10005DF804FB0004004010B5044686B0102244
:108D2000002102A802F0E0FF22680D4B9A4214D104
:108D300003F564439A690B4842F004029A619B6907
:108D40004FF4106203F004030193019B022302A974
:108D5000CDE90223059301F0B3F806B010BD00BFC2
:108D6000002C01400008014010B5002492B01C22E4
:108D7000214603A8CDE9014402F0B6FF2022214696
:108D80000AA802F0B1FF47232448254A8460C0E9BD
:108D9000002340F2E733C0E9033480234461836158
:108DA00002F018F908B1FEF799F91C4801A9CDE9BC
:108DB000014402F0C1FA08B1FEF790F900226023E5
:108DC000164803A9CDE90332CDE90522CDE90722F2
:108DD000099202F057F908B1FEF780F90C220F480A
:108DE0000DEB020102F04EF908B1FEF777F900230E
:108DF0004FF4005209480AA9CDE90A33CDE90C33F2
:108E00000E930F92119302F0C5FA08B1FEF766F9BE
:108E10000248FFF781FF12B010BD00BFE815002027
:108E2000002C014000230360037143718371C371FF
:108E3000037243728372C372037343738373C37386
:108E4000037443748374C3747047000042F6E06295
:108E50000368013303600368934251D01DD8B3F512
:108E60007A6F41D00DD8B3F57A7F37D005D8C82BAB
:108E70002ED0B3F5C87F2ED07047B3F5FA6F30D03F
:108E80007047B3F5FA5F35D042F21072934234D096
:108E900041F2707293422AD070474EF6602293429C
:108EA0003AD00BD844F6206293422FD047F230528A
:108EB00093422ED0B3F57A5F25D070471C4A934277
:108EC00030D01C4A934230D01B4A934227D070477F
:108ED000012303717047012343717047012383719C
:108EE00070470123C3717047012303727047012348
:108EF000437270470123837270470123C372704726
:108F00000123037370470123437370470123837365
:108F100070470123C3737047012303747047012313
:108F2000437470470123837470470123C3747047EF
:108F3000C0270900804F1200C0D401000A4608B5BE
:108F40000146054802F0E5FA044B1A6810B90132EF
:108F50001A6008BD013AFBE7BC160020501700203C
:108F60000A4608B50146054802F0D3FA044B1A68D0
:108F700010B901321A6008BD013AFBE7041700205E
:108F80005C17002008B54FF416530E480E4A4FF4F4
:108F90008051C0E900234FF4806C00230C22C0E90B
:108FA0000213C0E904C2C0E9063302F083FA08B133
:108FB000FEF794F8BDE8084001220449014802F098
:108FC0008ABC00BF04170020003801406017002051
:108FD00008B54FF416530C480C4AC0E9002300238F
:108FE0000C22C0E90233C0E905230361C36102F02A
:108FF00061FA08B1FEF772F8BDE8084001220449A1
:10900000014802F068BC00BFBC16002000480040C8
:1090100054170020102210B5044688B00DEB020052
:10902000002102F061FE2368334A934231D1334B71
:109030004FF400719A69324842F480429A619A6909
:10904000002402F480420092009A9A6942F00402DD
:109050009A619B6903F004030193019B0223CDE90C
:109060000413032304A9079300F02AFF4FF480633D
:10907000234804A9CDE90434069400F021FF2520FB
:109080002246214600F026FC252000F053FC08B0C3
:1090900010BD1C4A9342FAD1184B1B48DA6904A947
:1090A00042F48022DA61DA69002402F4802202921A
:1090B000029A9A6942F008029A619B694FF48062B1
:1090C00003F008030393039B0223CDE90423032346
:1090D000079300F0F5FE4FF400630B4804A9CDE9B7
:1090E0000434069400F0ECFE27202246214600F0CE
:1090F000F1FB2720C9E700BF003801400010024003
:109100000008014000480040000C014008B5044838
:10911000FCF792FABDE808400248FCF795B800BF9A
:10912000618F00083D8F000838B5144B0446984203
:1091300011D10368124D5B682846DBB22B70FCF737
:10914000A5FA01222946204602F0C5FB0D4A136804
:109150000133136038BD0C4B9842FBD103680B4DB3
:109160005B682846DBB22B70FCF7D0F80122294659
:10917000204602F0B0FB064AE9E700BF04170020D2
:109180006017002058170020BC160020541700203C
:109190004C17002070470000FFF7BAFC0B480C4941
:1091A0000C4A002302E0D458C4500433C4188C4243
:1091B000F9D3094A094C002301E013600432A242AA
:1091C000FBD302F0E5FDFDF78BFD704700000020AA
:1091D00078000020B4C6000878000020D4180020D1
:1091E000FEE7000038B50E4B05461A784FF47A7347
:1091F000B3FBF2F30B4A1068B0FBF3F000F0BAFBDC
:10920000044658B90F2D09D8024629464FF0FF30C1
:1092100000F060FB2046044B1D6038BD0120FCE7D8
:10922000140000201000002018000020074A08B594
:109230001368032043F01003136000F039FB0F2084
:10924000FFF7D0FFFFF7D2FB002008BD002002404F
:10925000034A044B11681B780B441360704700BF2E
:109260006417002014000020014B1868704700BFED
:109270006417002038B50446FFF7F6FF0546631C67
:109280001EBF044B1B78E418FFF7EEFF431BA342FD
:10929000FAD338BD14000020436A10B59A6A12F060
:1092A000500F1BD19A6A42F400729A621A6892684F
:1092B00002F46022B2F5602F0CD11A7B52B99A6A7F
:1092C00022F480729A629A6AD2045EBF9A6A42F06D
:1092D00001029A621846FCF757FE10BD1B6ABDE8F2
